{
  "_format": "hh-sol-artifact-1",
  "contractName": "Raffle",
  "sourceName": "contracts/Raffle.sol",
  "abi": [
    {
      "inputs": [
        {
          "internalType": "address",
          "name": "vrfCoordinatorV2",
          "type": "address"
        },
        {
          "internalType": "uint256",
          "name": "entranceFee",
          "type": "uint256"
        },
        {
          "internalType": "bytes32",
          "name": "gasLane",
          "type": "bytes32"
        },
        {
          "internalType": "uint64",
          "name": "subscriptionId",
          "type": "uint64"
        },
        {
          "internalType": "uint32",
          "name": "callbackGasLimit",
          "type": "uint32"
        },
        {
          "internalType": "uint256",
          "name": "interval",
          "type": "uint256"
        }
      ],
      "stateMutability": "nonpayable",
      "type": "constructor"
    },
    {
      "inputs": [
        {
          "internalType": "address",
          "name": "have",
          "type": "address"
        },
        {
          "internalType": "address",
          "name": "want",
          "type": "address"
        }
      ],
      "name": "OnlyCoordinatorCanFulfill",
      "type": "error"
    },
    {
      "inputs": [],
      "name": "Raffle__NotEnoughETHEntered",
      "type": "error"
    },
    {
      "inputs": [],
      "name": "Raffle__NotOpen",
      "type": "error"
    },
    {
      "inputs": [],
      "name": "Raffle__TransferFailed",
      "type": "error"
    },
    {
      "inputs": [
        {
          "internalType": "uint256",
          "name": "currentBalance",
          "type": "uint256"
        },
        {
          "internalType": "uint256",
          "name": "numPlayers",
          "type": "uint256"
        },
        {
          "internalType": "uint256",
          "name": "raffleState",
          "type": "uint256"
        }
      ],
      "name": "Raffle__UpkeepNotNeeded",
      "type": "error"
    },
    {
      "anonymous": false,
      "inputs": [
        {
          "indexed": true,
          "internalType": "address",
          "name": "player",
          "type": "address"
        }
      ],
      "name": "RaffleEnter",
      "type": "event"
    },
    {
      "anonymous": false,
      "inputs": [
        {
          "indexed": true,
          "internalType": "uint256",
          "name": "requestId",
          "type": "uint256"
        }
      ],
      "name": "RequestedRaffleWinner",
      "type": "event"
    },
    {
      "anonymous": false,
      "inputs": [
        {
          "indexed": true,
          "internalType": "address",
          "name": "player",
          "type": "address"
        }
      ],
      "name": "WinnerPicked",
      "type": "event"
    },
    {
      "inputs": [
        {
          "internalType": "bytes",
          "name": "",
          "type": "bytes"
        }
      ],
      "name": "checkUpkeep",
      "outputs": [
        {
          "internalType": "bool",
          "name": "upkeepNeeded",
          "type": "bool"
        },
        {
          "internalType": "bytes",
          "name": "",
          "type": "bytes"
        }
      ],
      "stateMutability": "view",
      "type": "function"
    },
    {
      "inputs": [],
      "name": "enterRaffle",
      "outputs": [],
      "stateMutability": "payable",
      "type": "function"
    },
    {
      "inputs": [],
      "name": "getCallbackGasLimit",
      "outputs": [
        {
          "internalType": "uint32",
          "name": "",
          "type": "uint32"
        }
      ],
      "stateMutability": "view",
      "type": "function"
    },
    {
      "inputs": [],
      "name": "getEntranceFee",
      "outputs": [
        {
          "internalType": "uint256",
          "name": "",
          "type": "uint256"
        }
      ],
      "stateMutability": "view",
      "type": "function"
    },
    {
      "inputs": [],
      "name": "getGasLane",
      "outputs": [
        {
          "internalType": "bytes32",
          "name": "",
          "type": "bytes32"
        }
      ],
      "stateMutability": "view",
      "type": "function"
    },
    {
      "inputs": [],
      "name": "getInterval",
      "outputs": [
        {
          "internalType": "uint256",
          "name": "",
          "type": "uint256"
        }
      ],
      "stateMutability": "view",
      "type": "function"
    },
    {
      "inputs": [],
      "name": "getLatestTimeStamp",
      "outputs": [
        {
          "internalType": "uint256",
          "name": "",
          "type": "uint256"
        }
      ],
      "stateMutability": "view",
      "type": "function"
    },
    {
      "inputs": [],
      "name": "getNumWords",
      "outputs": [
        {
          "internalType": "uint256",
          "name": "",
          "type": "uint256"
        }
      ],
      "stateMutability": "pure",
      "type": "function"
    },
    {
      "inputs": [],
      "name": "getNumberOfPlayers",
      "outputs": [
        {
          "internalType": "uint256",
          "name": "",
          "type": "uint256"
        }
      ],
      "stateMutability": "view",
      "type": "function"
    },
    {
      "inputs": [
        {
          "internalType": "uint256",
          "name": "index",
          "type": "uint256"
        }
      ],
      "name": "getPlayer",
      "outputs": [
        {
          "internalType": "address",
          "name": "",
          "type": "address"
        }
      ],
      "stateMutability": "view",
      "type": "function"
    },
    {
      "inputs": [],
      "name": "getRaffleState",
      "outputs": [
        {
          "internalType": "enum Raffle.RaffleState",
          "name": "",
          "type": "uint8"
        }
      ],
      "stateMutability": "view",
      "type": "function"
    },
    {
      "inputs": [],
      "name": "getRecentWinner",
      "outputs": [
        {
          "internalType": "address",
          "name": "",
          "type": "address"
        }
      ],
      "stateMutability": "view",
      "type": "function"
    },
    {
      "inputs": [],
      "name": "getRequestConfirmations",
      "outputs": [
        {
          "internalType": "uint256",
          "name": "",
          "type": "uint256"
        }
      ],
      "stateMutability": "pure",
      "type": "function"
    },
    {
      "inputs": [],
      "name": "getSubscriptionId",
      "outputs": [
        {
          "internalType": "uint64",
          "name": "",
          "type": "uint64"
        }
      ],
      "stateMutability": "view",
      "type": "function"
    },
    {
      "inputs": [
        {
          "internalType": "bytes",
          "name": "",
          "type": "bytes"
        }
      ],
      "name": "performUpkeep",
      "outputs": [],
      "stateMutability": "nonpayable",
      "type": "function"
    },
    {
      "inputs": [
        {
          "internalType": "uint256",
          "name": "requestId",
          "type": "uint256"
        },
        {
          "internalType": "uint256[]",
          "name": "randomWords",
          "type": "uint256[]"
        }
      ],
      "name": "rawFulfillRandomWords",
      "outputs": [],
      "stateMutability": "nonpayable",
      "type": "function"
    }
  ],
  "bytecode": "0x6101606040523480156200001257600080fd5b5060405162001a0838038062001a088339818101604052810190620000389190620001ad565b858073ffffffffffffffffffffffffffffffffffffffff1660808173ffffffffffffffffffffffffffffffffffffffff1660601b81525050508461014081815250508573ffffffffffffffffffffffffffffffffffffffff1660a08173ffffffffffffffffffffffffffffffffffffffff1660601b815250508360e081815250508267ffffffffffffffff1660c08167ffffffffffffffff1660c01b815250508163ffffffff166101008163ffffffff1660e01b815250506000600360006101000a81548160ff02191690836001811115620001195762000118620002b5565b5b0217905550426000819055508061012081815250505050505050506200036b565b6000815190506200014b81620002e9565b92915050565b600081519050620001628162000303565b92915050565b60008151905062000179816200031d565b92915050565b600081519050620001908162000337565b92915050565b600081519050620001a78162000351565b92915050565b60008060008060008060c08789031215620001cd57620001cc620002e4565b5b6000620001dd89828a016200013a565b9650506020620001f089828a0162000168565b95505060406200020389828a0162000151565b94505060606200021689828a0162000196565b93505060806200022989828a016200017f565b92505060a06200023c89828a0162000168565b9150509295509295509295565b6000620002568262000267565b9050919050565b6000819050919050565b600073ffffffffffffffffffffffffffffffffffffffff82169050919050565b6000819050919050565b600063ffffffff82169050919050565b600067ffffffffffffffff82169050919050565b7f4e487b7100000000000000000000000000000000000000000000000000000000600052602160045260246000fd5b600080fd5b620002f48162000249565b81146200030057600080fd5b50565b6200030e816200025d565b81146200031a57600080fd5b50565b620003288162000287565b81146200033457600080fd5b50565b620003428162000291565b81146200034e57600080fd5b50565b6200035c81620002a1565b81146200036857600080fd5b50565b60805160601c60a05160601c60c05160c01c60e0516101005160e01c610120516101405161160c620003fc600039600081816103ac01526104a90152600081816108a8015261095101526000818161075701526109c9015260008181610713015261097901526000818161073401526109a1015260006106d70152600081816103e9015261043d015261160c6000f3fe6080604052600436106100f35760003560e01c80635f1b0fd81161008a578063de3d9fb711610059578063de3d9fb7146102ea578063de8be8e714610315578063e55ae4e814610340578063fd6673f51461037d576100f3565b80635f1b0fd81461022b5780636e04ff0d1461025657806391ad27b414610294578063c19dd76b146102bf576100f3565b8063320229eb116100c6578063320229eb146101815780634585e33b146101ac578063473f1ddc146101d557806353a2c19a14610200576100f3565b806309bc33a7146100f8578063115cbaf5146101235780631fe543e31461014e5780632cfcc53914610177575b600080fd5b34801561010457600080fd5b5061010d6103a8565b60405161011a91906111dc565b60405180910390f35b34801561012f57600080fd5b506101386103d0565b60405161014591906111c1565b60405180910390f35b34801561015a57600080fd5b5061017560048036038101906101709190610f9a565b6103e7565b005b61017f6104a7565b005b34801561018d57600080fd5b50610196610616565b6040516101a391906111dc565b60405180910390f35b3480156101b857600080fd5b506101d360048036038101906101ce9190610eaa565b61061f565b005b3480156101e157600080fd5b506101ea61081f565b6040516101f791906110df565b60405180910390f35b34801561020c57600080fd5b50610215610849565b60405161022291906111dc565b60405180910390f35b34801561023757600080fd5b50610240610858565b60405161024d91906111dc565b60405180910390f35b34801561026257600080fd5b5061027d60048036038101906102789190610ef7565b610865565b60405161028b929190611123565b60405180910390f35b3480156102a057600080fd5b506102a961094d565b6040516102b691906111dc565b60405180910390f35b3480156102cb57600080fd5b506102d4610975565b6040516102e19190611153565b60405180910390f35b3480156102f657600080fd5b506102ff61099d565b60405161030c9190611249565b60405180910390f35b34801561032157600080fd5b5061032a6109c5565b604051610337919061122e565b60405180910390f35b34801561034c57600080fd5b5061036760048036038101906103629190610f40565b6109ed565b60405161037491906110df565b60405180910390f35b34801561038957600080fd5b50610392610a35565b60405161039f91906111dc565b60405180910390f35b60007f0000000000000000000000000000000000000000000000000000000000000000905090565b6000600360009054906101000a900460ff16905090565b7f000000000000000000000000000000000000000000000000000000000000000073ffffffffffffffffffffffffffffffffffffffff163373ffffffffffffffffffffffffffffffffffffffff161461049957337f00000000000000000000000000000000000000000000000000000000000000006040517f1cf993f40000000000000000000000000000000000000000000000000000000081526004016104909291906110fa565b60405180910390fd5b6104a38282610a42565b5050565b7f0000000000000000000000000000000000000000000000000000000000000000341015610501576040517fbd4e069500000000000000000000000000000000000000000000000000000000815260040160405180910390fd5b60006001811115610515576105146114ec565b5b600360009054906101000a900460ff166001811115610537576105366114ec565b5b1461056e576040517f1425571c00000000000000000000000000000000000000000000000000000000815260040160405180910390fd5b6002339080600181540180825580915050600190039060005260206000200160009091909190916101000a81548173ffffffffffffffffffffffffffffffffffffffff021916908373ffffffffffffffffffffffffffffffffffffffff1602179055503373ffffffffffffffffffffffffffffffffffffffff167f0805e1d667bddb8a95f0f09880cf94f403fb596ce79928d9f29b74203ba284d460405160405180910390a2565b60008054905090565b600061063960405180602001604052806000815250610865565b509050806106a85747600280549050600360009054906101000a900460ff16600181111561066a576106696114ec565b5b6040517f584327aa00000000000000000000000000000000000000000000000000000000815260040161069f939291906111f7565b60405180910390fd5b6001600360006101000a81548160ff021916908360018111156106ce576106cd6114ec565b5b021790555060007f000000000000000000000000000000000000000000000000000000000000000073ffffffffffffffffffffffffffffffffffffffff16635d3b1d307f00000000000000000000000000000000000000000000000000000000000000007f000000000000000000000000000000000000000000000000000000000000000060037f000000000000000000000000000000000000000000000000000000000000000060016040518663ffffffff1660e01b815260040161079895949392919061116e565b602060405180830381600087803b1580156107b257600080fd5b505af11580156107c6573d6000803e3d6000fd5b505050506040513d601f19601f820116820180604052508101906107ea9190610f6d565b9050807fcd6e45c8998311cab7e9d4385596cac867e20a0587194b954fa3a731c93ce78b60405160405180910390a250505050565b6000600160009054906101000a900473ffffffffffffffffffffffffffffffffffffffff16905090565b6000600163ffffffff16905090565b6000600361ffff16905090565b600060606000600360009054906101000a900460ff16600181111561088d5761088c6114ec565b5b600060018111156108a1576108a06114ec565b5b14905060007f0000000000000000000000000000000000000000000000000000000000000000600054426108d5919061130d565b119050600080600280549050119050600080471190508380156108f55750825b80156108fe5750815b80156109075750805b9550856040518060400160405280600381526020017f30783000000000000000000000000000000000000000000000000000000000008152509550955050505050915091565b60007f0000000000000000000000000000000000000000000000000000000000000000905090565b60007f0000000000000000000000000000000000000000000000000000000000000000905090565b60007f0000000000000000000000000000000000000000000000000000000000000000905090565b60007f0000000000000000000000000000000000000000000000000000000000000000905090565b600060028281548110610a0357610a0261151b565b5b9060005260206000200160009054906101000a900473ffffffffffffffffffffffffffffffffffffffff169050919050565b6000600280549050905090565b600060028054905082600081518110610a5e57610a5d61151b565b5b6020026020010151610a70919061145d565b9050600060028281548110610a8857610a8761151b565b5b9060005260206000200160009054906101000a900473ffffffffffffffffffffffffffffffffffffffff16905080600160006101000a81548173ffffffffffffffffffffffffffffffffffffffff021916908373ffffffffffffffffffffffffffffffffffffffff1602179055506000600360006101000a81548160ff02191690836001811115610b1c57610b1b6114ec565b5b0217905550600067ffffffffffffffff811115610b3c57610b3b61154a565b5b604051908082528060200260200182016040528015610b6a5781602001602082028036833780820191505090505b5060029080519060200190610b80929190610c75565b504260008190555060008173ffffffffffffffffffffffffffffffffffffffff1647604051610bae906110ca565b60006040518083038185875af1925050503d8060008114610beb576040519150601f19603f3d011682016040523d82523d6000602084013e610bf0565b606091505b5050905080610c2b576040517fa1d04b3900000000000000000000000000000000000000000000000000000000815260040160405180910390fd5b8173ffffffffffffffffffffffffffffffffffffffff167f5b690ec4a06fe979403046eaeea5b3ce38524683c3001f662c8b5a829632f7df60405160405180910390a25050505050565b828054828255906000526020600020908101928215610cee579160200282015b82811115610ced5782518260006101000a81548173ffffffffffffffffffffffffffffffffffffffff021916908373ffffffffffffffffffffffffffffffffffffffff16021790555091602001919060010190610c95565b5b509050610cfb9190610cff565b5090565b5b80821115610d18576000816000905550600101610d00565b5090565b6000610d2f610d2a84611289565b611264565b90508083825260208201905082856020860282011115610d5257610d51611583565b5b60005b85811015610d825781610d688882610e80565b845260208401935060208301925050600181019050610d55565b5050509392505050565b6000610d9f610d9a846112b5565b611264565b905082815260208101848484011115610dbb57610dba611588565b5b610dc68482856113ea565b509392505050565b600082601f830112610de357610de261157e565b5b8135610df3848260208601610d1c565b91505092915050565b60008083601f840112610e1257610e1161157e565b5b8235905067ffffffffffffffff811115610e2f57610e2e611579565b5b602083019150836001820283011115610e4b57610e4a611583565b5b9250929050565b600082601f830112610e6757610e6661157e565b5b8135610e77848260208601610d8c565b91505092915050565b600081359050610e8f816115bf565b92915050565b600081519050610ea4816115bf565b92915050565b60008060208385031215610ec157610ec0611592565b5b600083013567ffffffffffffffff811115610edf57610ede61158d565b5b610eeb85828601610dfc565b92509250509250929050565b600060208284031215610f0d57610f0c611592565b5b600082013567ffffffffffffffff811115610f2b57610f2a61158d565b5b610f3784828501610e52565b91505092915050565b600060208284031215610f5657610f55611592565b5b6000610f6484828501610e80565b91505092915050565b600060208284031215610f8357610f82611592565b5b6000610f9184828501610e95565b91505092915050565b60008060408385031215610fb157610fb0611592565b5b6000610fbf85828601610e80565b925050602083013567ffffffffffffffff811115610fe057610fdf61158d565b5b610fec85828601610dce565b9150509250929050565b610fff81611341565b82525050565b61100e81611353565b82525050565b61101d8161135f565b82525050565b600061102e826112e6565b61103881856112f1565b93506110488185602086016113f9565b61105181611597565b840191505092915050565b611065816113d8565b82525050565b6000611078600083611302565b9150611083826115a8565b600082019050919050565b6110978161137c565b82525050565b6110a6816113aa565b82525050565b6110b5816113b4565b82525050565b6110c4816113c4565b82525050565b60006110d58261106b565b9150819050919050565b60006020820190506110f46000830184610ff6565b92915050565b600060408201905061110f6000830185610ff6565b61111c6020830184610ff6565b9392505050565b60006040820190506111386000830185611005565b818103602083015261114a8184611023565b90509392505050565b60006020820190506111686000830184611014565b92915050565b600060a0820190506111836000830188611014565b61119060208301876110bb565b61119d604083018661108e565b6111aa60608301856110ac565b6111b760808301846110ac565b9695505050505050565b60006020820190506111d6600083018461105c565b92915050565b60006020820190506111f1600083018461109d565b92915050565b600060608201905061120c600083018661109d565b611219602083018561109d565b611226604083018461109d565b949350505050565b600060208201905061124360008301846110ac565b92915050565b600060208201905061125e60008301846110bb565b92915050565b600061126e61127f565b905061127a828261142c565b919050565b6000604051905090565b600067ffffffffffffffff8211156112a4576112a361154a565b5b602082029050602081019050919050565b600067ffffffffffffffff8211156112d0576112cf61154a565b5b6112d982611597565b9050602081019050919050565b600081519050919050565b600082825260208201905092915050565b600081905092915050565b6000611318826113aa565b9150611323836113aa565b9250828210156113365761133561148e565b5b828203905092915050565b600061134c8261138a565b9050919050565b60008115159050919050565b6000819050919050565b6000819050611377826115ab565b919050565b600061ffff82169050919050565b600073ffffffffffffffffffffffffffffffffffffffff82169050919050565b6000819050919050565b600063ffffffff82169050919050565b600067ffffffffffffffff82169050919050565b60006113e382611369565b9050919050565b82818337600083830152505050565b60005b838110156114175780820151818401526020810190506113fc565b83811115611426576000848401525b50505050565b61143582611597565b810181811067ffffffffffffffff821117156114545761145361154a565b5b80604052505050565b6000611468826113aa565b9150611473836113aa565b925082611483576114826114bd565b5b828206905092915050565b7f4e487b7100000000000000000000000000000000000000000000000000000000600052601160045260246000fd5b7f4e487b7100000000000000000000000000000000000000000000000000000000600052601260045260246000fd5b7f4e487b7100000000000000000000000000000000000000000000000000000000600052602160045260246000fd5b7f4e487b7100000000000000000000000000000000000000000000000000000000600052603260045260246000fd5b7f4e487b7100000000000000000000000000000000000000000000000000000000600052604160045260246000fd5b600080fd5b600080fd5b600080fd5b600080fd5b600080fd5b600080fd5b6000601f19601f8301169050919050565b50565b600281106115bc576115bb6114ec565b5b50565b6115c8816113aa565b81146115d357600080fd5b5056fea26469706673582212201c64284d2669699608d6908aa96116d2db5763b200637d412ff1d7f38e473aa964736f6c63430008070033",
  "linkReferences": {},
  "deployedLinkReferences": {}
}